:100000000C947D000C941D020C941D020C941D0296
:100010000C941D020C941D020C941D020C941D02E4
:100020000C94FF010C941D020C941D020C941D02F3
:100030000C941D020C941D020C941D020C941D02C4
:100040000C941D020C941D020C941D020C941D02B4
:100050000C941D020C941D020C941D020C941D02A4
:100060000C9409020C941D020C941D020C941D02A8
:100070000C941D020C941D020C9404020C941D029D
:100080000C941D020C941D020C941D020C9413027E
:100090000C941D020C941D020C941D020C941D0264
:1000A0000C941D020C941D020C941D020C941D0254
:1000B0000C941D020C9482010C940E020C941D02EF
:1000C0000C941D020C941D020C941D020C941D0234
:1000D0000C941D020C941D020C941D020C941D0224
:1000E0000C941D020C941D020C941D020C941D0214
:1000F0000C941D02400040048000809101108F7C10
:100100008060806898ED94BF8093011011241FBE19
:10011000CFEFCDBFDFE7DEBFE4EFF0E040E019C096
:10012000B791A79137912791079107FD0EC097913D
:100130008791EF01F92FE82F0BBF07900D92A217BF
:10014000B307D9F7FE011BBE04C01D92A217B30767
:10015000E1F7E93FF40721F70E94B8010C94ED01A3
:04016000F894FFCF41
:100164000F931F93CF93DF9340E054E0FA0114827E
:1001740020E234E0F901148280E494E0FC0114826A
:10018400C0E6D4E01C82A0E8B4E014961C92149754
:1001940000EA14E0F8011482FA01108268E0F9011F
:1001A4006083FC01108218821C92F8011082FA010B
:1001B400108A118A128A138A148A158A168A178A4F
:1001C400F901108A118A628B138A148A158A168A95
:1001D400178AFC01108A118A128A138A148A158AD2
:1001E400168A178A188A198A1A8A1B8A1C8A1D8AEF
:1001F4001E8A1F8A50961C92509751961C925197B2
:1002040052961C92529753961C92539754961C9252
:10021400549755961C92559756961C9256975796F6
:100224001C92F801108A118A128A138A148A158A78
:10023400168A178AE0EEF5E0118611821082148284
:10024400168217821086158212821382128681E228
:1002540092E0809302409093034082E292E0809384
:10026400004090930140DF91CF911F910F91089529
:1002740040E068ED80E690E00E94180240E068EDFE
:1002840081E690E00E94180240E068ED88E790E083
:100294000E9418024CE068ED88E690E00E94180283
:1002A40040E068ED89E690E00E94180240E068EDC5
:1002B40080E790E00E94180240E068ED8CE790E04F
:1002C4000E94180240E068ED82E690E00E94180265
:1002D40040E068ED83E690E00E94180240E068ED9B
:1002E40084E690E00E94180240E068ED80E890E027
:1002F4000E941802E0E6F0E0858181FFFDCF0895B9
:100304001F920F920FB60F9211240BB60F922F93D8
:100314003F934F935F936F937F938F939F93AF9389
:10032400BF93EF93FF933A9B05C0E0910240F09195
:10033400034009953B9B05C0E0910040F0910140CA
:1003440009958FEF87B9FF91EF91BF91AF919F917D
:100354008F917F916F915F914F913F912F910F906A
:0C0364000BBE0F900FBE0F901F9018955D
:10037000CF93DF9300D0CDB7DEB70E94F801E0E263
:10038000F4E084E0828388E08183828B19821A8280
:10039000A6E2B4E028E0E5E2F4E0329B02C020836C
:1003A00006C02C9389819A81019689839A833FE7BD
:1003B00088E391E0315080409040E1F700C00000B8
:0203C000ECCF80
:1003C20040E068ED80E191E00E941802E0E1F1E096
:0803D2001282138280E00895FD
:1003DA00EC010E9424020E942302CE010E942502FF
:0603EA00CE010E941F027B
:0E03F0000E943A010E94B2000E94E1010895AD
:0A03FE008F938FEF83B98F9118954C
:0A0408008F938FEF8BB98F91189539
:0A0412008F938FEF8FB98F9118952B
:0A041C008F938FEF83BB8F9118952B
:0A0426008F938FEF87BB8F9118951D
:0A0430001BBEFC0164BF4083089569
:04043A000C9400001E
:04043E000E94B00068
:0204420008951B
:02044400089519
:02044600089517
:02044800089515
:02044A00089513
:02000004008278
:090000000000000000C00800002F
:00000001FF
