:100000000C947A000C94CF000C94CF000C94CF0089
:100010000C94CF000C94CF000C94CF000C94CF0024
:100020000C94CF000C94CF000C94CF000C94CF0014
:100030000C94CF000C94CF000C94CF000C94CF0004
:100040000C94CF000C94CF000C94CF000C94CF00F4
:100050000C94CF000C94CF000C94CF000C94CF00E4
:100060000C94CF000C94CF000C94CF000C94CF00D4
:100070000C94CF000C94CF000C94CF000C94CF00C4
:100080000C94CF000C94CF000C94CF000C94CF00B4
:100090000C94CF000C94CF000C94CF000C94CF00A4
:1000A0000C94CF000C94CF000C94CF000C94CF0094
:1000B0000C94CF000C94CF000C94CF000C94CF0084
:1000C0000C94CF000C94CF000C94CF000C94CF0074
:1000D0000C94CF000C94CF000C94CF000C94CF0064
:1000E0000C94CF000C94CF000C94CF000C94CF0054
:1000F0000C94CF00809101108F7C8060806898ED17
:1001000094BF8093011011241FBECFEFCDBFDFE756
:0E011000DEBF0E94C9000C94BE00F894FFCF21
:10011E00E0E0F4E031E0358322E0268394E095833D
:10012E0088E08683A3ECB9E01197F1F700C00000D8
:10013E003683258395838683A3ECB9E01197F1F777
:10014E0000C000003683258396838583A3ECB9E037
:10015E001197F1F700C000003583268396838583BF
:0E016E0083EC99E00197F1F700C000000895BE
:10017C00EC010E94D4000E94D300CE010E94D50055
:06018C00CE010E94D1002B
:0C0192008FE0809301040E948F00FDCFDD
:04019E000C940000BD
:0401A2000E948D002A
:0201A6000895BA
:0201A8000895B8
:0201AA000895B6
:00000001FF
