:100000000C947A000C9484000C9484000C9484006A
:100010000C9484000C9484000C9484000C94840050
:100020000C9484000C9484000C9484000C94840040
:100030000C9484000C9484000C9484000C94840030
:100040000C9484000C9484000C9484000C94840020
:100050000C9484000C9484000C9484000C94840010
:100060000C9484000C9484000C9484000C94840000
:100070000C9484000C9484000C9484000C948400F0
:100080000C9484000C9484000C9484000C948400E0
:100090000C9484000C9484000C9484000C948400D0
:1000A0000C9484000C9484000C9484000C948400C0
:1000B0000C9484000C9484000C9484000C948400B0
:1000C0000C9484000C9484000C9484000C948400A0
:1000D0000C9484000C9484000C9484000C94840090
:1000E0000C9484000C9484000C9484000C94840080
:1000F0000C94840011241FBECFEFCDBFDFE7DEBF1D
:100100000E9486000C94FF000C940000E0E0F4E0F4
:100110008081806F8083E0EAF4E080818C6080835E
:10012000E0E8F4E08085887090E02085247030E07D
:100130004085427050E068E06093A504009719F490
:100140002115310529F42115310529F4009719F0FD
:100150004115510541F44115510581F4009771F0A5
:100160002115310559F0809105048031C9F2E0E094
:10017000F4E08FEF868380E18583D2CF009731F45E
:100180002115310519F44115510581F44115510529
:1001900029F4009719F42115310541F42115310591
:1001A00089F44115510571F4009761F080910504BF
:1001B000803209F4B5CFE0E0F4E08FEF868380E28F
:1001C0008583AECF892B81F4232B71F4452B61F409
:1001D00080910504803309F4A3CFE0E0F4E08FEFD1
:1001E000868380E385839CCF80910504882309F46E
:1001F00097CFE0E0F4E08FEF8683158291CFF894FB
:02020000FFCF2E
:00000001FF
