:100000000C947D000C9401020C9401020C940102EA
:100010000C9401020C9401020C9401020C94010254
:100020000C94E3010C9401020C9401020C94010263
:100030000C9401020C9401020C9401020C94010234
:100040000C9401020C9401020C9401020C94010224
:100050000C9401020C9401020C9401020C94010214
:100060000C94ED010C9401020C9401020C94010219
:100070000C9401020C9401020C947C010C9401027A
:100080000C9401020C9401020C9401020C94F701EF
:100090000C9401020C9401020C9401020C940102D4
:1000A0000C9401020C9401020C9401020C940102C4
:1000B0000C9401020C94E8010C94F2010C940102DE
:1000C0000C9401020C9401020C9401020C940102A4
:1000D0000C9401020C9401020C9401020C94010294
:1000E0000C9401020C9401020C9401020C94010284
:1000F0000C940102400040028000809101108F7C2E
:100100008060806898ED94BF8093011011241FBE19
:10011000CFEFCDBFDFE7DEBFE4EFF0E040E019C096
:10012000B791A79137912791079107FD0EC097913D
:100130008791EF01F92FE82F0BBF07900D92A217BF
:10014000B307D9F7FE011BBE04C01D92A217B30767
:10015000E1F7E93FF40721F70E94AB010C94C701D6
:04016000F894FFCF41
:100164000F931F93CF93DF9340E054E0FA0114827E
:1001740020E234E0F901148280E494E0FC0114826A
:10018400C0E6D4E01C82A0E8B4E014961C92149754
:1001940000EA14E0F8011482FA011082F9011082D5
:1001A40061E0FC01608318821C92F8011082FA015C
:1001B400108A118A128A138A148A158A168A178A4F
:1001C400F901108A118A128A138A148A158A168AE6
:1001D400178AFC01108A118A128A138A148A158AD2
:1001E400168A178A188A198A1A8A1B8A1C8A1D8AEF
:1001F4001E8A1F8A50961C92509751961C925197B2
:1002040052961C92529753961C92539754961C9252
:10021400549755961C92559756961C9256975796F6
:100224001C92F801108A118A128A138A148A158A78
:10023400168A178AE0EEF5E0118611821082148284
:10024400168217821086158212821382128685E026
:1002540092E08093004090930140DF91CF911F91F1
:040264000F91089559
:1002680040E068ED80E690E00E94FC0140E068ED27
:1002780081E690E00E94FC0140E068ED88E790E0AC
:100288000E94FC014CE068ED88E690E00E94FC01C9
:1002980040E068ED89E690E00E94FC0140E068EDEE
:1002A80080E790E00E94FC0140E068ED8CE790E078
:1002B8000E94FC0140E068ED82E690E00E94FC01AB
:1002C80040E068ED83E690E00E94FC0140E068EDC4
:1002D80084E690E00E94FC0140E068ED80E890E050
:1002E8000E94FC01E0E6F0E0858181FFFDCF0895E2
:1002F8001F920F920FB60F9211240BB60F922F93E5
:100308003F934F935F936F937F938F939F93AF9395
:10031800BF93EF93FF93589B05C0E0910040F09185
:10032800014009958FEF8BB9FF91EF91BF91AF9184
:100338009F918F917F916F915F914F913F912F91F5
:0E0348000F900BBE0F900FBE0F901F901895D8
:100356000E94DC0106E414E0C1E00E94D201F8012B
:10036600C0838FE19EE40197F1F700C00000F5CF4E
:1003760040E068ED80E191E00E94FC01E0E1F1E0FF
:080386001282138280E0089549
:10038E00EC010E9407020E940602CE010E940802A2
:06039E00CE010E940302E3
:1003A40081E08093450487E092E00197F1F700C073
:0403B40000000895A8
:0E03B8000E9434010E94B2000E94BB01089511
:0A03C6008F938FEF83B98F91189584
:0A03D0008F938FEF87B98F91189576
:0A03DA008F938FEF8FB98F91189564
:0A03E4008F938FEF83BB8F91189564
:0A03EE008F938FEF87BB8F91189556
:0A03F8001BBEFC0164BF40830895A2
:040402000C94000056
:040406000E94B000A0
:02040A00089553
:02040C00089551
:02040E0008954F
:0204100008954D
:02000004008278
:090000000000000000C00800002F
:00000001FF
