:100000000C947A000C9484000C9484000C9484006A
:100010000C9484000C9484000C9484000C94840050
:100020000C9484000C9484000C9484000C94840040
:100030000C9484000C9484000C9484000C94840030
:100040000C9484000C9484000C9484000C94840020
:100050000C9484000C9484000C9484000C94840010
:100060000C9484000C9484000C9484000C94840000
:100070000C9484000C9484000C9484000C948400F0
:100080000C9484000C9484000C9484000C948400E0
:100090000C9484000C9484000C9484000C948400D0
:1000A0000C9484000C9484000C9484000C948400C0
:1000B0000C9484000C9484000C9484000C948400B0
:1000C0000C9484000C9484000C9484000C948400A0
:1000D0000C9484000C9484000C9484000C94840090
:1000E0000C9484000C9484000C9484000C94840080
:1000F0000C94840011241FBECFEFCDBFDFE7DEBF1D
:100100000E9486000C94BD000C940000E0E8F4E02E
:10011000808181608083E0E6F4E08081806280837A
:10012000E0E8F4E08085887090E04085447050E01D
:100130002085227030E0009731F44115510519F403
:100140002115310571F42115310529F4009719F4B1
:100150004115510531F4452B51F4232B41F4892BE2
:1001600031F0E0E6F4E084818F7D8483D9CFE0E64E
:0E017000F4E0848180628483D3CFF894FFCFC3
:00000001FF
