:100000000C9480000C948B020C948B020C948B0249
:100010000C948B020C948B020C948B020C948B022C
:100020000C946D020C948B020C948B020C948B023A
:100030000C948B020C948B020C948B020C948B020C
:100040000C948B020C948B020C948B020C948B02FC
:100050000C948B020C948B020C948B020C948B02EC
:100060000C9477020C948B020C948B020C948B02F0
:100070000C948B020C948B020C9491010C948B02C7
:100080000C948B020C948B020C948B020C948102C6
:100090000C948B020C948B020C948B020C948B02AC
:1000A0000C948B020C948B020C948B020C948B029C
:1000B0000C948B020C9472020C947C020C948B02B4
:1000C0000C948B020C948B020C948B020C948B027C
:1000D0000C948B020C948B020C948B020C948B026C
:1000E0000C948B020C948B020C948B020C948B025C
:1000F0000C948B024000400200052C4002400A8014
:10010000809101108F7C8060806898ED94BF80930F
:10011000011011241FBECFEFCDBFDFE7DEBFE4EF3C
:10012000F0E041E019C0B791A7913791279107916D
:1001300007FD0EC097918791EF01F92FE82F0BBFB4
:1001400007900D92A217B307D9F7FE011BBE04C09A
:100150001D92A217B307E1F7E030F40721F70E94E0
:0A016000D5010C945B02F894FFCF68
:10016A000F931F93CF93DF9340E054E0FA01148278
:10017A0020E234E0F901148280E494E0FC01148264
:10018A00C0E6D4E01C82A0E8B4E014961C9214974E
:10019A0000EA14E0F8011482FA011082F9011082CF
:1001AA006FE0FC01608318821C92F8011082FA0148
:1001BA00108A118A128A138A148A158A168A178A49
:1001CA00F901108A118A128A138A148A158A168AE0
:1001DA00178AFC01108A118A128A138A148A158ACC
:1001EA00168A178A188A198A1A8A1B8A1C8A1D8AE9
:1001FA001E8A1F8A50961C92509751961C925197AC
:10020A0052961C92529753961C92539754961C924C
:10021A00549755961C92559756961C9256975796F0
:10022A001C92F801108A118A128A138A148A158A72
:10023A00168A178AE0EEF5E011861182108214827E
:10024A0016821782108615821282138212868FE80E
:10025A0092E0809308409093094080E992E080936D
:10026A0006409093074081E992E08093044090937E
:10027A00054082E992E08093024090930340DF9127
:08028A00CF911F910F9108951F
:1002920040E068ED80E690E00E94860240E068ED72
:1002A20081E690E00E94860240E068ED88E790E0F7
:1002B2000E9486024CE068ED88E690E00E94860289
:1002C20040E068ED89E690E00E94860240E068ED39
:1002D20080E790E00E94860240E068ED8CE790E0C3
:1002E2000E94860240E068ED82E690E00E9486026B
:1002F20040E068ED83E690E00E94860240E068ED0F
:1003020084E690E00E94860240E068ED80E890E09A
:100312000E948602E0E6F0E0858181FFFDCF08952C
:100322001F920F920FB60F9211240BB60F922F93BA
:100332003F934F935F936F937F938F939F93AF936B
:10034200BF93EF93FF93589B05C0E0910840F09153
:1003520009400995599B05C0E0910640F09107407C
:1003620009955A9B05C0E0910440F091054009951A
:100372005B9B05C0E0910240F091034009958FEF2D
:100382008BB9FF91EF91BF91AF919F918F917F9127
:100392006F915F914F913F912F910F900BBE0F90F4
:0803A2000FBE0F901F9018958B
:1003AA000E9466028091004090910140992394F046
:1003BA00C0E0D0E00E941E020E940B020E94F801D7
:1003CA000E943102219680910040909101408C1741
:1003DA009D0784F70E94500287EE93E00197F1F798
:0603EA0000C00000DFCF9F
:1003F000E6E4F4E081E08083A5E4B4E082E08C935D
:1004000084E08C9388E0808387EE93E00197F1F796
:0604100000C00000089589
:10041600A5E4B4E081E08C93E6E4F4E082E0808336
:1004260084E08C9388E0808387EE93E00197F1F770
:0604360000C00000089563
:10043C00E5E4F4E081E08083A6E4B4E082E08C9310
:10044C0084E08C9388E0808387EE93E00197F1F74A
:06045C0000C0000008953D
:10046200A6E4B4E081E08C93E5E4F4E082E08083EA
:1004720084E08C9388E0808387EE93E00197F1F724
:0604820000C00000089517
:1004880040E068ED80E191E00E948602E0E1F1E061
:080498001282138280E0089536
:1004A000E5E4F4E081E0808382E0808384E080837F
:0604B00088E0808308953E
:1004B600EC010E9494020E949302CE010E949502D2
:0604C600CE010E948D0230
:0E04CC000E9449010E94B5000E94440208955A
:0A04DA008F938FEF83B98F9118956F
:0A04E4008F938FEF87B98F91189561
:0A04EE008F938FEF8FB98F9118954F
:0A04F8008F938FEF83BB8F9118954F
:0A0502008F938FEF87BB8F91189540
:0A050C001BBEFC0164BF408308958C
:040516000C94000041
:04051A000E94B30088
:02051E0008953E
:0205200008953C
:0205220008953A
:02052400089538
:02052600089536
:02052800089534
:02052A00089532
:02052C0032009B
:02000004008278
:090000000000000000C00800002F
:00000001FF
