:100000000C947A000C9484000C9484000C9484006A
:100010000C9484000C9484000C9484000C94840050
:100020000C9484000C9484000C9484000C94840040
:100030000C9484000C9484000C9484000C94840030
:100040000C9484000C9484000C9484000C94840020
:100050000C9484000C9484000C9484000C94840010
:100060000C9484000C9484000C9484000C94840000
:100070000C9484000C9484000C9484000C948400F0
:100080000C9484000C9484000C9484000C948400E0
:100090000C9484000C9484000C9484000C948400D0
:1000A0000C9484000C9484000C9484000C948400C0
:1000B0000C9484000C9484000C9484000C948400B0
:1000C0000C9484000C9484000C9484000C948400A0
:1000D0000C9484000C9484000C9484000C94840090
:1000E0000C9484000C9484000C9484000C94840080
:1000F0000C94840011241FBECFEFCDBFDFE7DEBF1D
:100100000E9486000C94B8000C940000E0E8F4E033
:1001100080818160808340E030E001C0382F909181
:10012000880481E0292F247092FD80E021110DC008
:1001300083ED90E30197F1F700C0000080918804FF
:100140008695869591E089278170882339F331114E
:10015000E5CF91E0492731F0E0E8F4E09481916047
:100160009483DCCFE0E8F4E094819E7F9483D6CF43
:04017000F894FFCF31
:00000001FF
