S01700004763634170706C69636174696F6E312E737265635B
S11300000C947A000C9491000C9491000C9491003F
S11300100C9491000C9491000C9491000C94910018
S11300200C9491000C9491000C9491000C94910008
S11300300C9491000C9491000C9491000C949100F8
S11300400C9491000C9491000C9491000C949100E8
S11300500C9491000C9491000C9491000C949100D8
S11300600C9491000C9491000C9491000C949100C8
S11300700C9491000C9491000C9491000C949100B8
S11300800C9491000C9491000C9491000C949100A8
S11300900C9491000C9491000C9491000C94910098
S11300A00C9491000C9491000C9491000C94910088
S11300B00C9491000C9491000C9491000C94910078
S11300C00C9491000C9491000C9491000C94910068
S11300D00C9491000C9491000C9491000C94910058
S11300E00C9491000C9491000C9491000C94910048
S11300F00C94910011241FBECFEFCDBFDFE7DEBF0C
S113010010E4A0E0B0E4E8EBF1E000E00BBF02C0D3
S113011007900D92AA30B107D9F70E94CA000C9437
S1130120DA000C940000E0E2F4E081E0818382E0F4
S11301308283E0E6F8E081E493E08087918783E0BE
S1130140878386818064868308959091640895FFEF
S1130150FCCF8093620808950F931F93CF93DF938E
S11301608C01C0E0D0E007C0F801EC0FFD1F8081D6
S11301700E94A5002196F80101900020E9F731972B
S1130180E01BF10BCE17DF0778F3DF91CF911F91BE
S11301900F9108950E94930080E090E40E94AC00C7
S11301A02FE78AE196E0215080409040E1F700C0BB
S10B01B00000F2CFF894FFCF28
S10D01B8313139343139340D0A00B5
S9030000FC
