:100000000C947A000C94B2000C94B2000C94B200E0
:100010000C94B2000C94B2000C94B2000C94B20098
:100020000C94B2000C94B2000C94B2000C94B20088
:100030000C94B2000C94B2000C94B2000C94B20078
:100040000C94B2000C94B2000C94B2000C94B20068
:100050000C94B2000C94B2000C94B2000C94B20058
:100060000C94B2000C94B2000C94B2000C94B20048
:100070000C94B2000C94B2000C94B2000C94B20038
:100080000C94B2000C94B2000C94B2000C94B20028
:100090000C94B2000C94B2000C94B2000C94B20018
:1000A0000C94B2000C94B2000C94B2000C94B20008
:1000B0000C94B2000C94B2000C94B2000C94B200F8
:1000C0000C94B2000C94B2000C94B2000C94B200E8
:1000D0000C94B2000C94B2000C94B2000C94B200D8
:1000E0000C94B2000C94B2000C94B2000C94B200C8
:1000F0000C94B200809101108F7C8060806898ED34
:1001000094BF8093011011241FBECFEFCDBFDFE756
:0E011000DEBF0E948F000C94A700F894FFCF72
:10011E00E0E2F4E084E0828388E08183828B98E0E1
:10012E00808582FF02C0958301C096832FE738E356
:10013E0081E0215030408040E1F700C00000F0CF58
:10014E00EC010E94B7000E94B600CE010E94B800DA
:06015E00CE010E94B40076
:040164000C940000F7
:040168000E948D0064
:02016C000895F4
:02016E000895F2
:020170000895F0
:00000001FF
