:100000000C947D000C9402020C9402020C940202E7
:100010000C9402020C9402020C9402020C94020250
:100020000C94E4010C9402020C9402020C9402025F
:100030000C9402020C9402020C9402020C94020230
:100040000C9402020C9402020C9402020C94020220
:100050000C9402020C9402020C9402020C94020210
:100060000C94EE010C9402020C9402020C94020215
:100070000C9402020C9402020C94E9010C9402020A
:100080000C9402020C9402020C9402020C94F801EB
:100090000C9402020C9402020C9402020C940202D0
:1000A0000C9402020C9402020C9402020C940202C0
:1000B0000C9402020C947C010C94F3010C94020247
:1000C0000C9402020C9402020C9402020C940202A0
:1000D0000C9402020C9402020C9402020C94020290
:1000E0000C9402020C9402020C9402020C94020280
:1000F0000C940202400040048000809101108F7C2B
:100100008060806898ED94BF8093011011241FBE19
:10011000CFEFCDBFDFE7DEBFE4EFF0E040E019C096
:10012000B791A79137912791079107FD0EC097913D
:100130008791EF01F92FE82F0BBF07900D92A217BF
:10014000B307D9F7FE011BBE04C01D92A217B30767
:10015000E1F7E93FF40721F70E94AB010C94D201CB
:04016000F894FFCF41
:100164000F931F93CF93DF9340E054E0FA0114827E
:1001740020E234E0F901148280E494E0FC0114826A
:10018400C0E6D4E01C82A0E8B4E014961C92149754
:1001940000EA14E0F8011482FA01108268E0F9011F
:1001A4006083FC01108218821C92F8011082FA010B
:1001B400108A118A128A138A148A158A168A178A4F
:1001C400F901108A118A128A138A148A158A168AE6
:1001D400178AFC01108A118A128A138A148A158AD2
:1001E400168A178A188A198A1A8A1B8A1C8A1D8AEF
:1001F4001E8A1F8A50961C92509751961C925197B2
:1002040052961C92529753961C92539754961C9252
:10021400549755961C92559756961C9256975796F6
:100224001C92F801108A118A128A138A148A158A78
:10023400168A178AE0EEF5E0118611821082148284
:10024400168217821086158212821382128686E025
:1002540092E08093004090930140DF91CF911F91F1
:040264000F91089559
:1002680041E068ED80E690E00E94FD0140E068ED25
:1002780081E690E00E94FD0140E068ED88E790E0AB
:100288000E94FD014CE068ED88E690E00E94FD01C7
:1002980040E068ED89E690E00E94FD0140E068EDED
:1002A80080E790E00E94FD0140E068ED8CE790E077
:1002B8000E94FD0140E068ED82E690E00E94FD01A9
:1002C80040E068ED83E690E00E94FD0140E068EDC3
:1002D80084E690E00E94FD0140E068ED80E890E04F
:1002E8000E94FD01E0E6F0E0858182FFFDCF0895E0
:1002F8001F920F920FB60F9211240BB60F922F93E5
:100308003F934F935F936F937F938F939F93AF9395
:10031800BF93EF93FF933B9B05C0E0910040F091A2
:10032800014009958FEF87B9FF91EF91BF91AF9188
:100338009F918F917F916F915F914F913F912F91F5
:0E0348000F900BBE0F900FBE0F901F901895D8
:100356000E94DD01E7E2F4E028E0809102409091FE
:10036600034001968093024090930340809102409F
:100376009091034080349C4980F310920240109281
:0603860003402083EACFD2
:10038C0040E068ED80E191E00E94FD01E0E1F1E0E8
:08039C001282138280E0089533
:1003A400EC010E9408020E940702CE010E94090289
:0603B400CE010E940402CC
:0E03BA000E9434010E94B2000E94C601089504
:0A03C8008F938FEF83B98F91189582
:0A03D2008F938FEF8BB98F91189570
:0A03DC008F938FEF8FB98F91189562
:0A03E6008F938FEF83BB8F91189562
:0A03F0008F938FEF87BB8F91189554
:0A03FA001BBEFC0164BF40830895A0
:040404000C94000054
:040408000E94B0009E
:02040C00089551
:02040E0008954F
:0204100008954D
:0204120008954B
:02000004008278
:090000000000000000C00800002F
:00000001FF
