:100000000C947A000C94C8000C94C8000C94C8009E
:100010000C94C8000C94C8000C94C8000C94C80040
:100020000C94C8000C94C8000C94C8000C94C80030
:100030000C94C8000C94C8000C94C8000C94C80020
:100040000C94C8000C94C8000C94C8000C94C80010
:100050000C94C8000C94C8000C94C8000C94C80000
:100060000C94C8000C94C8000C94C8000C94C800F0
:100070000C94C8000C94C8000C94C8000C94C800E0
:100080000C94C8000C94C8000C94C8000C94C800D0
:100090000C94C8000C94C8000C94C8000C94C800C0
:1000A0000C94C8000C94C8000C94C8000C94C800B0
:1000B0000C94C8000C94C8000C94C8000C94C800A0
:1000C0000C94C8000C94C8000C94C8000C94C80090
:1000D0000C94C8000C94C8000C94C8000C94C80080
:1000E0000C94C8000C94C8000C94C8000C94C80070
:1000F0000C94C800809101108F7C8060806898ED1E
:1001000094BF8093011011241FBECFEFCDBFDFE756
:0E011000DEBF0E948F000C94BD00F894FFCF5C
:10011E0088E08093210480E28093610481E08093E3
:10012E008104C0E2D4E028E0A0E6B4E090E2E0E88A
:10013E00F4E02D8315969C93159786833FEF44E349
:10014E005CE0315040405040E1F700C000002E838B
:10015E0016969C93169785833FEF44E35CE03150EF
:0C016E0040405040E1F700C00000E3CF2B
:10017A00EC010E94CD000E94CC00CE010E94CE006C
:06018A00CE010E94CA0034
:040190000C940000CB
:040194000E948D0038
:020198000895C8
:02019A000895C6
:02019C000895C4
:00000001FF
