:100000000C947D000C941A020C941A020C941A029F
:100010000C941A020C941A020C941A020C941A02F0
:100020000C94FC010C941A020C941A020C941A02FF
:100030000C941A020C941A020C941A020C941A02D0
:100040000C941A020C941A020C941A020C941A02C0
:100050000C941A020C941A020C941A020C941A02B0
:100060000C9406020C941A020C941A020C941A02B4
:100070000C941A020C941A020C9401020C941A02A9
:100080000C941A020C941A020C941A020C9410028A
:100090000C941A020C941A020C941A020C941A0270
:1000A0000C941A020C941A020C941A020C941A0260
:1000B0000C941A020C947D010C940B020C941A02FD
:1000C0000C941A020C941A020C941A020C941A0240
:1000D0000C941A020C941A020C941A020C941A0230
:1000E0000C941A020C941A020C941A020C941A0220
:1000F0000C941A02400040048000809101108F7C13
:100100008060806898ED94BF8093011011241FBE19
:10011000CFEFCDBFDFE7DEBFE4EFF0E040E019C096
:10012000B791A79137912791079107FD0EC097913D
:100130008791EF01F92FE82F0BBF07900D92A217BF
:10014000B307D9F7FE011BBE04C01D92A217B30767
:10015000E1F7E93FF40721F70E94C6010C94E8019A
:04016000F894FFCF41
:100164000F931F93CF93DF9340E054E0FA0114827E
:1001740020E234E0F901148280E494E0FC0114826A
:10018400C0E6D4E01C82A0E8B4E014961C92149754
:1001940000EA14E0F8011482FA01108268E0F9011F
:1001A4006083FC01108218821C92F8011082FA010B
:1001B400108A118A128A138A148A158A168A178A4F
:1001C400F901108A118A128A138A148A158A168AE6
:1001D400178AFC01108A118A128A138A148A158AD2
:1001E400168A178A188A198A1A8A1B8A1C8A1D8AEF
:1001F4001E8A1F8A50961C92509751961C925197B2
:1002040052961C92529753961C92539754961C9252
:10021400549755961C92559756961C9256975796F6
:100224001C92F801108A118A128A138A148A158A78
:10023400168A178AE0EEF5E0118611821082148284
:1002440081E08683178210861582128213821286B9
:100254008EE192E08093004090930140DF91CF9132
:060264001F910F910895A7
:10026A0040E068ED80E690E00E94150240E068ED0B
:10027A0081E690E00E94150240E068ED88E790E090
:10028A000E9415024CE068ED88E690E00E94150293
:10029A0040E068ED89E690E00E94150240E068EDD2
:1002AA0080E790E00E94150240E068ED8CE790E05C
:1002BA000E94150240E068ED82E690E00E94150275
:1002CA0040E068ED83E690E00E94150240E068EDA8
:1002DA0084E690E00E94150240E068ED80E890E034
:1002EA000E941502E0E6F0E0858181FFFDCF0895C6
:1002FA001F920F920FB60F9211240BB60F922F93E3
:10030A003F934F935F936F937F938F939F93AF9393
:10031A00BF93EF93FF933B9B05C0E0910040F091A0
:10032A00014009958FEF87B9FF91EF91BF91AF9186
:10033A009F918F917F916F915F914F913F912F91F3
:0E034A000F900BBE0F900FBE0F901F901895D6
:10035800E0E0FAE081E0838390E1918312821482E5
:10036800158216869CEC91A713A615A611A29FEFDD
:1003780097A31286138610A612A614A610A296A3F7
:0403880080830895D1
:10038C000E94F301E9E2FAE020E8809102409091AA
:10039C0003400196809302409093034020838FE0AA
:0C03AC0097E20197F1F700C00000EFCFCE
:1003B80040E068ED80E191E00E941502E0E1F1E0A3
:0803C8001282138280E0089507
:1003D000EC010E9420020E941F02CE010E94210215
:0603E000CE010E941C0288
:1003E6000E9435010E94B2000E94AC010E94DC010D
:0203F600089568
:0A03F8008F938FEF83B98F91189552
:0A0402008F938FEF8BB98F9118953F
:0A040C008F938FEF8FB98F91189531
:0A0416008F938FEF83BB8F91189531
:0A0420008F938FEF87BB8F91189523
:0A042A001BBEFC0164BF408308956F
:040434000C94000024
:040438000E94B0006E
:02043C00089521
:02043E0008951F
:0204400008951D
:0204420008951B
:02000004008278
:090000000000000000C00800002F
:00000001FF
